:100000000C942A000C943C000C943C000C943C0092
:100010000C943C000C943C000C943C000C943C0070
:100020000C943C000C943C000C943C000C943C0060
:100030000C943C000C943C000C943C000C943C0050
:100040000C943C000C943C000C943C000C943C0040
:100050000C943C0011241FBECFE5D8E0DEBFCDBF1D
:1000600020E0A0E6B0E001C01D92A036B207E1F7A3
:100070000E944B000C9493000C94000081B38E7F7F
:1000800081BB81B3806281BB81B3806481BB81B35A
:10009000806881BB0895CF93DF931F92CDB7DEB701
:1000A0000E943E0085E08983809BFECF8981893054
:1000B000D8F789818830D1F482B38F7782BB82B33D
:1000C0008F7B82BB82B38F7D82BB809B03C0898183
:1000D0008830D9F32FE38DE093E0215080409040A9
:1000E000E1F700C0000085E08983DECF298181E04F
:1000F00090E002C0880F991F2A95E2F792B3892BEE
:1001000082BB809B03C089818830D8F32FE38DE0C8
:1001100093E0215080409040E1F700C000008981C9
:0A0120008F5F8983C1CFF894FFCFF1
:00000001FF
