:100000000C942A000C9447000C9447000C94470071
:100010000C9447000C9447000C9447000C94470044
:100020000C9447000C9447000C9447000C94470034
:100030000C9447000C9447000C9447000C94470024
:100040000C9447000C9447000C9447000C94470014
:100050000C94470011241FBECFE5D8E0DEBFCDBF12
:1000600010E0A0E6B0E0E4E2F1E002C005900D92FD
:10007000AA36B107D9F720E0AAE6B0E001C01D9288
:10008000AC36B207E1F70E944C000C9490000C943F
:1000900000008FEF84BB08950E94490015BA1092AA
:1000A0006A0039C010926B0018C0F0E0E05AFF4FB0
:1000B000808120E1829FC0011124876085BB8FE38E
:1000C0009DE023E0815090402040E1F700C0000017
:1000D00080916B008F5F80936B00E0916B00EA3042
:1000E00020F3E0916A00F0E0E05AFF4F808120E1C8
:1000F000829FC00111248B6085BB8FE39DE023E0CC
:10010000815090402040E1F700C0000080916A00DB
:100110008F5F80936A0080916A008A3018F2BFCFA7
:04012000F894FFCF81
:0A01240000010203040506070809A4
:00000001FF
