:100000000C942A000C943C000C943C000C943C0092
:100010000C943C000C943C000C943C000C943C0070
:100020000C943C000C943C000C943C000C943C0060
:100030000C943C000C943C000C943C000C943C0050
:100040000C943C000C943C000C943C000C943C0040
:100050000C943C0011241FBECFE5D8E0DEBFCDBF1D
:1000600020E0A0E6B0E001C01D92A036B207E1F7A3
:100070000E9445000C945C000C94000081B38E7FBC
:1000800081BB81B3806181BB08950E943E00809B4B
:100090000FC082B3806182BB8099FECF2FE38DE0D9
:1000A00093E0215080409040E1F700C00000EFCF86
:0C00B00082B38F7E82BBEBCFF894FFCFB1
:00000001FF
