:100000000C942A000C9434000C9434000C943400AA
:100010000C9434000C9434000C9434000C94340090
:100020000C9434000C9434000C9434000C94340080
:100030000C9434000C9434000C9434000C94340070
:100040000C9434000C9434000C9434000C94340060
:100050000C94340011241FBECFE5D8E0DEBFCDBF25
:100060000E943A000C947C000C94000008958FEFDD
:1000700081BB0895DF93CF930F92CDB7DEB78FEF9B
:1000800081BBA5E061E070E048EC50E037E0A98377
:1000900014C022B38981FB0102C0EE0FFF1F8A95B5
:1000A000E2F72E2B22BB88E893E1FA013197F1F7B2
:1000B0000197D9F789818F5F89838981883048F3D7
:1000C000398316C022B38981FB0102C0EE0FFF1FE6
:1000D0008A95E2F7CF018095822382BB88E893E17D
:1000E000FA013197F1F70197D9F789818150898316
:0C00F0008981853060F2E6CFF894FFCFE4
:00000001FF
